{
  "_format": "hh-sol-artifact-1",
  "contractName": "NerdFund",
  "sourceName": "contracts/NerdFund.sol",
  "abi": [
    {
      "inputs": [
        {
          "internalType": "address",
          "name": "_erc20",
          "type": "address"
        }
      ],
      "stateMutability": "nonpayable",
      "type": "constructor"
    },
    {
      "anonymous": false,
      "inputs": [
        {
          "indexed": true,
          "internalType": "uint256",
          "name": "roundId",
          "type": "uint256"
        },
        {
          "indexed": true,
          "internalType": "uint256",
          "name": "projectId",
          "type": "uint256"
        },
        {
          "indexed": false,
          "internalType": "string",
          "name": "name",
          "type": "string"
        }
      ],
      "name": "AddProject",
      "type": "event"
    },
    {
      "anonymous": false,
      "inputs": [
        {
          "indexed": true,
          "internalType": "uint256",
          "name": "roundId",
          "type": "uint256"
        },
        {
          "indexed": false,
          "internalType": "uint256",
          "name": "project1",
          "type": "uint256"
        },
        {
          "indexed": false,
          "internalType": "uint256",
          "name": "project2",
          "type": "uint256"
        },
        {
          "indexed": false,
          "internalType": "uint256",
          "name": "project3",
          "type": "uint256"
        }
      ],
      "name": "Complete",
      "type": "event"
    },
    {
      "anonymous": false,
      "inputs": [
        {
          "indexed": true,
          "internalType": "address",
          "name": "user",
          "type": "address"
        },
        {
          "indexed": true,
          "internalType": "uint256",
          "name": "roundId",
          "type": "uint256"
        },
        {
          "indexed": false,
          "internalType": "uint256[]",
          "name": "projectIds",
          "type": "uint256[]"
        },
        {
          "indexed": false,
          "internalType": "uint256[]",
          "name": "amounts",
          "type": "uint256[]"
        }
      ],
      "name": "Fund",
      "type": "event"
    },
    {
      "anonymous": false,
      "inputs": [
        {
          "indexed": true,
          "internalType": "address",
          "name": "previousOwner",
          "type": "address"
        },
        {
          "indexed": true,
          "internalType": "address",
          "name": "newOwner",
          "type": "address"
        }
      ],
      "name": "OwnershipTransferred",
      "type": "event"
    },
    {
      "anonymous": false,
      "inputs": [
        {
          "indexed": false,
          "internalType": "address",
          "name": "account",
          "type": "address"
        }
      ],
      "name": "Paused",
      "type": "event"
    },
    {
      "anonymous": false,
      "inputs": [
        {
          "indexed": false,
          "internalType": "address",
          "name": "account",
          "type": "address"
        }
      ],
      "name": "Unpaused",
      "type": "event"
    },
    {
      "inputs": [
        {
          "internalType": "string[]",
          "name": "_names",
          "type": "string[]"
        },
        {
          "internalType": "string[]",
          "name": "_descriptions",
          "type": "string[]"
        },
        {
          "internalType": "string[]",
          "name": "_imageLinks",
          "type": "string[]"
        },
        {
          "internalType": "string[]",
          "name": "_dataLinks",
          "type": "string[]"
        }
      ],
      "name": "addProject",
      "outputs": [],
      "stateMutability": "nonpayable",
      "type": "function"
    },
    {
      "inputs": [
        {
          "internalType": "address",
          "name": "_user",
          "type": "address"
        }
      ],
      "name": "blockUser",
      "outputs": [],
      "stateMutability": "nonpayable",
      "type": "function"
    },
    {
      "inputs": [],
      "name": "claim",
      "outputs": [],
      "stateMutability": "nonpayable",
      "type": "function"
    },
    {
      "inputs": [
        {
          "internalType": "uint256",
          "name": "_to",
          "type": "uint256"
        }
      ],
      "name": "claimTo",
      "outputs": [],
      "stateMutability": "nonpayable",
      "type": "function"
    },
    {
      "inputs": [
        {
          "internalType": "uint256",
          "name": "_project1",
          "type": "uint256"
        },
        {
          "internalType": "uint256",
          "name": "_project2",
          "type": "uint256"
        },
        {
          "internalType": "uint256",
          "name": "_project3",
          "type": "uint256"
        }
      ],
      "name": "complete",
      "outputs": [],
      "stateMutability": "nonpayable",
      "type": "function"
    },
    {
      "inputs": [
        {
          "internalType": "uint256[]",
          "name": "_projectIds",
          "type": "uint256[]"
        },
        {
          "internalType": "uint256[]",
          "name": "_amounts",
          "type": "uint256[]"
        }
      ],
      "name": "fund",
      "outputs": [],
      "stateMutability": "nonpayable",
      "type": "function"
    },
    {
      "inputs": [
        {
          "internalType": "uint256",
          "name": "_round",
          "type": "uint256"
        }
      ],
      "name": "getAllProjectsInRound",
      "outputs": [
        {
          "components": [
            {
              "internalType": "uint256",
              "name": "projectId",
              "type": "uint256"
            },
            {
              "internalType": "string",
              "name": "name",
              "type": "string"
            },
            {
              "internalType": "string",
              "name": "description",
              "type": "string"
            },
            {
              "internalType": "string",
              "name": "imageLink",
              "type": "string"
            },
            {
              "internalType": "string",
              "name": "dataLink",
              "type": "string"
            },
            {
              "internalType": "uint256",
              "name": "fund",
              "type": "uint256"
            }
          ],
          "internalType": "struct NerdFund.ProjectInfo[]",
          "name": "projectsInfo",
          "type": "tuple[]"
        }
      ],
      "stateMutability": "view",
      "type": "function"
    },
    {
      "inputs": [
        {
          "internalType": "address",
          "name": "_user",
          "type": "address"
        }
      ],
      "name": "getClaimableAmount",
      "outputs": [
        {
          "internalType": "uint256",
          "name": "",
          "type": "uint256"
        }
      ],
      "stateMutability": "view",
      "type": "function"
    },
    {
      "inputs": [
        {
          "internalType": "uint256",
          "name": "_round",
          "type": "uint256"
        },
        {
          "internalType": "uint256",
          "name": "_projectId",
          "type": "uint256"
        }
      ],
      "name": "getProject",
      "outputs": [
        {
          "components": [
            {
              "internalType": "uint256",
              "name": "projectId",
              "type": "uint256"
            },
            {
              "internalType": "string",
              "name": "name",
              "type": "string"
            },
            {
              "internalType": "string",
              "name": "description",
              "type": "string"
            },
            {
              "internalType": "string",
              "name": "imageLink",
              "type": "string"
            },
            {
              "internalType": "string",
              "name": "dataLink",
              "type": "string"
            },
            {
              "internalType": "uint256",
              "name": "fund",
              "type": "uint256"
            }
          ],
          "internalType": "struct NerdFund.ProjectInfo",
          "name": "",
          "type": "tuple"
        }
      ],
      "stateMutability": "view",
      "type": "function"
    },
    {
      "inputs": [
        {
          "internalType": "address",
          "name": "_user",
          "type": "address"
        },
        {
          "internalType": "uint256",
          "name": "_round",
          "type": "uint256"
        }
      ],
      "name": "getUserInfo",
      "outputs": [
        {
          "internalType": "uint256[]",
          "name": "",
          "type": "uint256[]"
        }
      ],
      "stateMutability": "view",
      "type": "function"
    },
    {
      "inputs": [],
      "name": "iERC20",
      "outputs": [
        {
          "internalType": "contract IERC20",
          "name": "",
          "type": "address"
        }
      ],
      "stateMutability": "view",
      "type": "function"
    },
    {
      "inputs": [
        {
          "internalType": "address",
          "name": "",
          "type": "address"
        }
      ],
      "name": "lastClaim",
      "outputs": [
        {
          "internalType": "uint256",
          "name": "",
          "type": "uint256"
        }
      ],
      "stateMutability": "view",
      "type": "function"
    },
    {
      "inputs": [],
      "name": "owner",
      "outputs": [
        {
          "internalType": "address",
          "name": "",
          "type": "address"
        }
      ],
      "stateMutability": "view",
      "type": "function"
    },
    {
      "inputs": [],
      "name": "pause",
      "outputs": [],
      "stateMutability": "nonpayable",
      "type": "function"
    },
    {
      "inputs": [],
      "name": "paused",
      "outputs": [
        {
          "internalType": "bool",
          "name": "",
          "type": "bool"
        }
      ],
      "stateMutability": "view",
      "type": "function"
    },
    {
      "inputs": [],
      "name": "renounceOwnership",
      "outputs": [],
      "stateMutability": "nonpayable",
      "type": "function"
    },
    {
      "inputs": [],
      "name": "round",
      "outputs": [
        {
          "internalType": "uint256",
          "name": "",
          "type": "uint256"
        }
      ],
      "stateMutability": "view",
      "type": "function"
    },
    {
      "inputs": [
        {
          "internalType": "uint256[]",
          "name": "_projectIds",
          "type": "uint256[]"
        },
        {
          "internalType": "uint256[]",
          "name": "_amounts",
          "type": "uint256[]"
        }
      ],
      "name": "switchFund",
      "outputs": [],
      "stateMutability": "nonpayable",
      "type": "function"
    },
    {
      "inputs": [
        {
          "internalType": "address",
          "name": "newOwner",
          "type": "address"
        }
      ],
      "name": "transferOwnership",
      "outputs": [],
      "stateMutability": "nonpayable",
      "type": "function"
    },
    {
      "inputs": [],
      "name": "unpause",
      "outputs": [],
      "stateMutability": "nonpayable",
      "type": "function"
    },
    {
      "inputs": [
        {
          "internalType": "address",
          "name": "_token",
          "type": "address"
        }
      ],
      "name": "withdraw",
      "outputs": [],
      "stateMutability": "nonpayable",
      "type": "function"
    }
  ],
  "bytecode": "0x60806040523480156200001157600080fd5b5060405162003002380380620030028339810160408190526200003491620000c2565b6200003f3362000072565b6000805460ff60a01b19169055600180546001600160a01b0319166001600160a01b0392909216919091179055620000f2565b600080546001600160a01b038381166001600160a01b0319831681178455604051919092169283917f8be0079c531659141344cd1fd0a4f28419497f9722a3daafe3b4186f6b6457e09190a35050565b600060208284031215620000d4578081fd5b81516001600160a01b0381168114620000eb578182fd5b9392505050565b612f0080620001026000396000f3fe608060405234801561001057600080fd5b50600436106101765760003560e01c80635c975abb116100d85780638456cb591161008c5780639473b617116100665780639473b61714610309578063e12f3a611461031c578063f2fde38b1461032f57610176565b80638456cb59146102dd5780638d27b1a9146102e55780638da5cb5b146102f857610176565b806371c3a19f116100bd57806371c3a19f1461029757806376e8424f146102aa57806377141696146102ca57610176565b80635c975abb1461026c578063715018a61461028f57610176565b80633f4ba83a1161012f5780634e71d92d116101145780634e71d92d1461023157806351cff8d9146102395780635c16e15e1461024c57610176565b80633f4ba83a1461020957806349df94641461021157610176565b8063146ca53111610160578063146ca531146101b95780633c4001d4146101cb5780633da01325146101f657610176565b8062bd0e4b1461017b57806305e7a89614610190575b600080fd5b61018e610189366004612ad4565b610342565b005b6101a361019e366004612b55565b6106f1565b6040516101b09190612cd6565b60405180910390f35b6002545b6040519081526020016101b0565b6001546101de906001600160a01b031681565b6040516001600160a01b0390911681526020016101b0565b61018e6102043660046129e9565b610ad8565b61018e610b04565b61022461021f366004612b85565b610b16565b6040516101b09190612d8b565b61018e610e8d565b61018e6102473660046129e9565b6110da565b6101bd61025a3660046129e9565b60056020526000908152604090205481565b61027f600054600160a01b900460ff1690565b60405190151581526020016101b0565b61018e6111c7565b61018e6102a5366004612a2c565b6111d9565b6102bd6102b8366004612a03565b61147e565b6040516101b09190612d37565b61018e6102d8366004612ad4565b6115b0565b61018e611baa565b61018e6102f3366004612b55565b611bba565b6000546001600160a01b03166101de565b61018e610317366004612ba6565b611e5d565b6101bd61032a3660046129e9565b612052565b61018e61033d3660046129e9565b6121e5565b61034a612272565b3360009081526006602052604090205460ff16156103a15760405162461bcd60e51b815260206004820152600f60248201526e165bdd48185c9948189b1bd8dad959608a1b60448201526064015b60405180910390fd5b80518251146103f25760405162461bcd60e51b815260206004820152601260248201527f496e76616c696420706172616d657465727300000000000000000000000000006044820152606401610398565b600254600090815b845181101561068e57600082815260036020526040902054855186908390811061043457634e487b7160e01b600052603260045260246000fd5b60200260200101511061047d5760405162461bcd60e51b8152602060048201526011602482015270125b9d985b1a59081c1c9bda9958dd1259607a1b6044820152606401610398565b600084828151811061049f57634e487b7160e01b600052603260045260246000fd5b6020026020010151116104f45760405162461bcd60e51b815260206004820152600e60248201527f496e76616c696420616d6f756e740000000000000000000000000000000000006044820152606401610398565b83818151811061051457634e487b7160e01b600052603260045260246000fd5b6020026020010151836105279190612df3565b925083818151811061054957634e487b7160e01b600052603260045260246000fd5b602002602001015160046000336001600160a01b03166001600160a01b03168152602001908152602001600020600084815260200190815260200160002060008784815181106105a957634e487b7160e01b600052603260045260246000fd5b6020026020010151815260200190815260200160002060008282546105ce9190612df3565b925050819055508381815181106105f557634e487b7160e01b600052603260045260246000fd5b60200260200101516003600084815260200190815260200160002086838151811061063057634e487b7160e01b600052603260045260246000fd5b60200260200101518154811061065657634e487b7160e01b600052603260045260246000fd5b906000526020600020906006020160050160008282546106769190612df3565b9091555081905061068681612e83565b9150506103fa565b506001546106a7906001600160a01b03163330856122d2565b80336001600160a01b03167f9217fcce3bf71f26ac621d016a6f36d9beab14f88cc3fa67f6848f8f37c726d186866040516106e3929190612d4a565b60405180910390a350505050565b6002546060908211156107365760405162461bcd60e51b815260206004820152600d60248201526c125b9d985b1a59081c9bdd5b99609a1b6044820152606401610398565b60008281526003602052604090205467ffffffffffffffff81111561076b57634e487b7160e01b600052604160045260246000fd5b6040519080825280602002602001820160405280156107d557816020015b6107c26040518060c001604052806000815260200160608152602001606081526020016060815260200160608152602001600081525090565b8152602001906001900390816107895790505b50905060005b600083815260036020526040902054811015610ad257600083815260036020526040902080548290811061081f57634e487b7160e01b600052603260045260246000fd5b90600052602060002090600602016040518060c00160405290816000820154815260200160018201805461085290612e4e565b80601f016020809104026020016040519081016040528092919081815260200182805461087e90612e4e565b80156108cb5780601f106108a0576101008083540402835291602001916108cb565b820191906000526020600020905b8154815290600101906020018083116108ae57829003601f168201915b505050505081526020016002820180546108e490612e4e565b80601f016020809104026020016040519081016040528092919081815260200182805461091090612e4e565b801561095d5780601f106109325761010080835404028352916020019161095d565b820191906000526020600020905b81548152906001019060200180831161094057829003601f168201915b5050505050815260200160038201805461097690612e4e565b80601f01602080910402602001604051908101604052809291908181526020018280546109a290612e4e565b80156109ef5780601f106109c4576101008083540402835291602001916109ef565b820191906000526020600020905b8154815290600101906020018083116109d257829003601f168201915b50505050508152602001600482018054610a0890612e4e565b80601f0160208091040260200160405190810160405280929190818152602001828054610a3490612e4e565b8015610a815780601f10610a5657610100808354040283529160200191610a81565b820191906000526020600020905b815481529060010190602001808311610a6457829003601f168201915b50505050508152602001600582015481525050828281518110610ab457634e487b7160e01b600052603260045260246000fd5b60200260200101819052508080610aca90612e83565b9150506107db565b50919050565b610ae0612389565b6001600160a01b03166000908152600660205260409020805460ff19166001179055565b610b0c612389565b610b146123e3565b565b610b4f6040518060c001604052806000815260200160608152602001606081526020016060815260200160608152602001600081525090565b600254831115610b915760405162461bcd60e51b815260206004820152600d60248201526c125b9d985b1a59081c9bdd5b99609a1b6044820152606401610398565b6000838152600360205260409020548210610be25760405162461bcd60e51b8152602060048201526011602482015270125b9d985b1a59081c1c9bda9958dd1259607a1b6044820152606401610398565b6000838152600360205260409020805483908110610c1057634e487b7160e01b600052603260045260246000fd5b90600052602060002090600602016040518060c001604052908160008201548152602001600182018054610c4390612e4e565b80601f0160208091040260200160405190810160405280929190818152602001828054610c6f90612e4e565b8015610cbc5780601f10610c9157610100808354040283529160200191610cbc565b820191906000526020600020905b815481529060010190602001808311610c9f57829003601f168201915b50505050508152602001600282018054610cd590612e4e565b80601f0160208091040260200160405190810160405280929190818152602001828054610d0190612e4e565b8015610d4e5780601f10610d2357610100808354040283529160200191610d4e565b820191906000526020600020905b815481529060010190602001808311610d3157829003601f168201915b50505050508152602001600382018054610d6790612e4e565b80601f0160208091040260200160405190810160405280929190818152602001828054610d9390612e4e565b8015610de05780601f10610db557610100808354040283529160200191610de0565b820191906000526020600020905b815481529060010190602001808311610dc357829003601f168201915b50505050508152602001600482018054610df990612e4e565b80601f0160208091040260200160405190810160405280929190818152602001828054610e2590612e4e565b8015610e725780601f10610e4757610100808354040283529160200191610e72565b820191906000526020600020905b815481529060010190602001808311610e5557829003601f168201915b50505050508152602001600582015481525050905092915050565b610e95612272565b3360009081526006602052604090205460ff1615610ee75760405162461bcd60e51b815260206004820152600f60248201526e165bdd48185c9948189b1bd8dad959608a1b6044820152606401610398565b6002543360009081526005602052604090205410610f395760405162461bcd60e51b815260206004820152600f60248201526e105b1c9958591e4818db185a5b5959608a1b6044820152606401610398565b336000908152600560205260408120545b6002548110156110a65760005b6000828152600360205260409020548110156110935760028281548110610f8e57634e487b7160e01b600052603260045260246000fd5b9060005260206000209060030201600001548114158015610fe1575060028281548110610fcb57634e487b7160e01b600052603260045260246000fd5b9060005260206000209060030201600101548114155b801561101f57506002828154811061100957634e487b7160e01b600052603260045260246000fd5b9060005260206000209060030201600201548114155b801561104c5750336000908152600460209081526040808320858452825280832084845290915290205415155b1561108157336000908152600460209081526040808320858452825280832084845290915290205461107e9084612df3565b92505b8061108b81612e83565b915050610f57565b508061109e81612e83565b915050610f4a565b506002543360009081526005602052604090205580156110d7576001546110d7906001600160a01b03163383612438565b50565b6110e2612389565b6001600160a01b0381166111225760405133904780156108fc02916000818181858888f1935050505015801561111c573d6000803e3d6000fd5b506110d7565b6110d7336040517f70a082310000000000000000000000000000000000000000000000000000000081523060048201526001600160a01b038416906370a082319060240160206040518083038186803b15801561117e57600080fd5b505afa158015611192573d6000803e3d6000fd5b505050506040513d601f19601f820116820180604052508101906111b69190612b6d565b6001600160a01b0384169190612438565b6111cf612389565b610b146000612486565b6111e1612389565b6111e9612272565b825184511480156111fb575081518351145b8015611208575080518251145b6112545760405162461bcd60e51b815260206004820152601260248201527f496e76616c696420706172616d657465727300000000000000000000000000006044820152606401610398565b60005b8451811015611477576002546040805160c081018252600083815260036020908152928120548252885190928201908990869081106112a657634e487b7160e01b600052603260045260246000fd5b602002602001015181526020018785815181106112d357634e487b7160e01b600052603260045260246000fd5b6020026020010151815260200186858151811061130057634e487b7160e01b600052603260045260246000fd5b6020026020010151815260200185858151811061132d57634e487b7160e01b600052603260045260246000fd5b60209081029190910181015182526000918101829052848252600381526040822080546001818101835591845292829020845160069094020192835583820151805194955085946113869392850192919091019061280f565b50604082015180516113a291600284019160209091019061280f565b50606082015180516113be91600384019160209091019061280f565b50608082015180516113da91600484019160209091019061280f565b5060a0919091015160059091015560008281526003602052604090205461140390600190612e0b565b827f9bf009ed6d896d264e502b1e20a466ea979a4d81a207f2c2e101f007c09df08489868151811061144557634e487b7160e01b600052603260045260246000fd5b602002602001015160405161145a9190612d78565b60405180910390a35050808061146f90612e83565b915050611257565b5050505050565b6002546060908211156114c35760405162461bcd60e51b815260206004820152600d60248201526c125b9d985b1a59081c9bdd5b99609a1b6044820152606401610398565b60008281526003602052604081205467ffffffffffffffff8111156114f857634e487b7160e01b600052604160045260246000fd5b604051908082528060200260200182016040528015611521578160200160208202803683370190505b50905060005b6000848152600360205260409020548110156115a8576001600160a01b03851660009081526004602090815260408083208784528252808320848452909152902054825183908390811061158b57634e487b7160e01b600052603260045260246000fd5b6020908102919091010152806115a081612e83565b915050611527565b509392505050565b6115b8612272565b3360009081526006602052604090205460ff161561160a5760405162461bcd60e51b815260206004820152600f60248201526e165bdd48185c9948189b1bd8dad959608a1b6044820152606401610398565b805182511461165b5760405162461bcd60e51b815260206004820152601260248201527f496e76616c696420506172616d657465727300000000000000000000000000006044820152606401610398565b60025433600090815260056020526040902054106116ad5760405162461bcd60e51b815260206004820152600f60248201526e105b1c9958591e4818db185a5b5959608a1b6044820152606401610398565b336000908152600560205260408120545b60025481101561181a5760005b600082815260036020526040902054811015611807576002828154811061170257634e487b7160e01b600052603260045260246000fd5b906000526020600020906003020160000154811415801561175557506002828154811061173f57634e487b7160e01b600052603260045260246000fd5b9060005260206000209060030201600101548114155b801561179357506002828154811061177d57634e487b7160e01b600052603260045260246000fd5b9060005260206000209060030201600201548114155b80156117c05750336000908152600460209081526040808320858452825280832084845290915290205415155b156117f55733600090815260046020908152604080832085845282528083208484529091529020546117f29084612df3565b92505b806117ff81612e83565b9150506116cb565b508061181281612e83565b9150506116be565b506000811161186b5760405162461bcd60e51b815260206004820152601260248201527f496e76616c69642073776974636846756e6400000000000000000000000000006044820152606401610398565b6002543360009081526005602052604081208290555b8451811015611b8c5760008281526003602052604090205485518690839081106118bb57634e487b7160e01b600052603260045260246000fd5b6020026020010151106119045760405162461bcd60e51b8152602060048201526011602482015270125b9d985b1a59081c1c9bda9958dd1259607a1b6044820152606401610398565b600084828151811061192657634e487b7160e01b600052603260045260246000fd5b60200260200101511161197b5760405162461bcd60e51b815260206004820152600e60248201527f496e76616c696420616d6f756e740000000000000000000000000000000000006044820152606401610398565b83818151811061199b57634e487b7160e01b600052603260045260246000fd5b60200260200101518310156119f25760405162461bcd60e51b815260206004820152601060248201527f4e6f7420656e6f75676820746f6b656e000000000000000000000000000000006044820152606401610398565b838181518110611a1257634e487b7160e01b600052603260045260246000fd5b602002602001015183611a259190612e0b565b9250838181518110611a4757634e487b7160e01b600052603260045260246000fd5b602002602001015160046000336001600160a01b03166001600160a01b0316815260200190815260200160002060008481526020019081526020016000206000878481518110611aa757634e487b7160e01b600052603260045260246000fd5b602002602001015181526020019081526020016000206000828254611acc9190612df3565b92505081905550838181518110611af357634e487b7160e01b600052603260045260246000fd5b602002602001015160036000848152602001908152602001600020868381518110611b2e57634e487b7160e01b600052603260045260246000fd5b602002602001015181548110611b5457634e487b7160e01b600052603260045260246000fd5b90600052602060002090600602016005016000828254611b749190612df3565b90915550819050611b8481612e83565b915050611881565b5081156106a7576001546106a7906001600160a01b03163384612438565b611bb2612389565b610b146124ee565b611bc2612272565b3360009081526006602052604090205460ff1615611c145760405162461bcd60e51b815260206004820152600f60248201526e165bdd48185c9948189b1bd8dad959608a1b6044820152606401610398565b6002548110611c655760405162461bcd60e51b815260206004820152601460248201527f496e76616c696420746f20706172616d657465720000000000000000000000006044820152606401610398565b33600090815260056020526040902054811015611cb65760405162461bcd60e51b815260206004820152600f60248201526e105b1c9958591e4818db185a5b5959608a1b6044820152606401610398565b336000908152600560205260408120545b828111611e205760005b600082815260036020526040902054811015611e0d5760028281548110611d0857634e487b7160e01b600052603260045260246000fd5b9060005260206000209060030201600001548114158015611d5b575060028281548110611d4557634e487b7160e01b600052603260045260246000fd5b9060005260206000209060030201600101548114155b8015611d99575060028281548110611d8357634e487b7160e01b600052603260045260246000fd5b9060005260206000209060030201600201548114155b8015611dc65750336000908152600460209081526040808320858452825280832084845290915290205415155b15611dfb573360009081526004602090815260408083208584528252808320848452909152902054611df89084612df3565b92505b80611e0581612e83565b915050611cd1565b5080611e1881612e83565b915050611cc7565b50611e2c826001612df3565b336000908152600560205260409020558015611e5957600154611e59906001600160a01b03163383612438565b5050565b611e65612272565b611e6d612389565b6002546000818152600360205260408120805484908110611e9e57634e487b7160e01b600052603260045260246000fd5b906000526020600020906006020160050154600360008481526020019081526020016000208581548110611ee257634e487b7160e01b600052603260045260246000fd5b906000526020600020906006020160050154600360008581526020019081526020016000208781548110611f2657634e487b7160e01b600052603260045260246000fd5b906000526020600020906006020160050154611f429190612df3565b611f4c9190612df3565b600154909150611f66906001600160a01b03163383612438565b604080516060808201835287825260208083018881528385018881526002805460018101825560009190915294517f405787fa12a823e0f2b7631cc41b3ba8828b3321ca811111fa75cd3aa3bb5ace60039096029586015590517f405787fa12a823e0f2b7631cc41b3ba8828b3321ca811111fa75cd3aa3bb5acf850155517f405787fa12a823e0f2b7631cc41b3ba8828b3321ca811111fa75cd3aa3bb5ad090930192909255825188815291820187905291810185905283917f5b8fb1df9120ca6271a8dc53037c6148295ce799efcb44bb456c480f6b5d5735910160405180910390a25050505050565b6001600160a01b03811660009081526005602052604081205481905b6002548110156121dc5760005b6000828152600360205260409020548110156121c957600282815481106120b257634e487b7160e01b600052603260045260246000fd5b90600052602060002090600302016000015481141580156121055750600282815481106120ef57634e487b7160e01b600052603260045260246000fd5b9060005260206000209060030201600101548114155b801561214357506002828154811061212d57634e487b7160e01b600052603260045260246000fd5b9060005260206000209060030201600201548114155b801561217957506001600160a01b0385166000908152600460209081526040808320858452825280832084845290915290205415155b156121b7576001600160a01b038516600090815260046020908152604080832085845282528083208484529091529020546121b49084612df3565b92505b806121c181612e83565b91505061207b565b50806121d481612e83565b91505061206e565b5090505b919050565b6121ed612389565b6001600160a01b0381166122695760405162461bcd60e51b815260206004820152602660248201527f4f776e61626c653a206e6577206f776e657220697320746865207a65726f206160448201527f64647265737300000000000000000000000000000000000000000000000000006064820152608401610398565b6110d781612486565b612285600054600160a01b900460ff1690565b15610b145760405162461bcd60e51b815260206004820152601060248201527f5061757361626c653a20706175736564000000000000000000000000000000006044820152606401610398565b6040516001600160a01b03808516602483015283166044820152606481018290526123839085907f23b872dd00000000000000000000000000000000000000000000000000000000906084015b60408051601f198184030181529190526020810180517bffffffffffffffffffffffffffffffffffffffffffffffffffffffff167fffffffff0000000000000000000000000000000000000000000000000000000090931692909217909152612531565b50505050565b6000546001600160a01b03163314610b145760405162461bcd60e51b815260206004820181905260248201527f4f776e61626c653a2063616c6c6572206973206e6f7420746865206f776e65726044820152606401610398565b6123eb612616565b6000805460ff60a01b191690557f5db9ee0a495bf2e6ff9c91a7834c1ba4fdd244a5e8aa4e537bd38aeae4b073aa335b6040516001600160a01b03909116815260200160405180910390a1565b6040516001600160a01b0383166024820152604481018290526124819084907fa9059cbb000000000000000000000000000000000000000000000000000000009060640161231f565b505050565b600080546001600160a01b038381167fffffffffffffffffffffffff0000000000000000000000000000000000000000831681178455604051919092169283917f8be0079c531659141344cd1fd0a4f28419497f9722a3daafe3b4186f6b6457e09190a35050565b6124f6612272565b6000805460ff60a01b1916600160a01b1790557f62e78cea01bee320cd4e420270b5ea74000d11b0c9f74754ebdbfc544b05a25861241b3390565b6000612586826040518060400160405280602081526020017f5361666545524332303a206c6f772d6c6576656c2063616c6c206661696c6564815250856001600160a01b03166126759092919063ffffffff16565b80519091501561248157808060200190518101906125a49190612b35565b6124815760405162461bcd60e51b815260206004820152602a60248201527f5361666545524332303a204552433230206f7065726174696f6e20646964206e60448201527f6f742073756363656564000000000000000000000000000000000000000000006064820152608401610398565b612629600054600160a01b900460ff1690565b610b145760405162461bcd60e51b815260206004820152601460248201527f5061757361626c653a206e6f74207061757365640000000000000000000000006044820152606401610398565b6060612684848460008561268e565b90505b9392505050565b6060824710156127065760405162461bcd60e51b815260206004820152602660248201527f416464726573733a20696e73756666696369656e742062616c616e636520666f60448201527f722063616c6c00000000000000000000000000000000000000000000000000006064820152608401610398565b6001600160a01b0385163b61275d5760405162461bcd60e51b815260206004820152601d60248201527f416464726573733a2063616c6c20746f206e6f6e2d636f6e74726163740000006044820152606401610398565b600080866001600160a01b031685876040516127799190612cba565b60006040518083038185875af1925050503d80600081146127b6576040519150601f19603f3d011682016040523d82523d6000602084013e6127bb565b606091505b50915091506127cb8282866127d6565b979650505050505050565b606083156127e5575081612687565b8251156127f55782518084602001fd5b8160405162461bcd60e51b81526004016103989190612d78565b82805461281b90612e4e565b90600052602060002090601f01602090048101928261283d5760008555612883565b82601f1061285657805160ff1916838001178555612883565b82800160010185558215612883579182015b82811115612883578251825591602001919060010190612868565b5061288f929150612893565b5090565b5b8082111561288f5760008155600101612894565b80356001600160a01b03811681146121e057600080fd5b6000601f83818401126128d0578182fd5b823560206128e56128e083612dcf565b612d9e565b82815281810190868301865b8581101561297157813589018a603f82011261290b578889fd5b85810135604067ffffffffffffffff82111561292957612929612eb4565b61293a828b01601f19168901612d9e565b8281528d8284860101111561294d578b8cfd5b828285018a83013791820188018b90525085525092840192908401906001016128f1565b509098975050505050505050565b600082601f83011261298f578081fd5b8135602061299f6128e083612dcf565b80838252828201915082860187848660051b89010111156129be578586fd5b855b858110156129dc578135845292840192908401906001016129c0565b5090979650505050505050565b6000602082840312156129fa578081fd5b612687826128a8565b60008060408385031215612a15578081fd5b612a1e836128a8565b946020939093013593505050565b60008060008060808587031215612a41578182fd5b843567ffffffffffffffff80821115612a58578384fd5b612a64888389016128bf565b95506020870135915080821115612a79578384fd5b612a85888389016128bf565b94506040870135915080821115612a9a578384fd5b612aa6888389016128bf565b93506060870135915080821115612abb578283fd5b50612ac8878288016128bf565b91505092959194509250565b60008060408385031215612ae6578182fd5b823567ffffffffffffffff80821115612afd578384fd5b612b098683870161297f565b93506020850135915080821115612b1e578283fd5b50612b2b8582860161297f565b9150509250929050565b600060208284031215612b46578081fd5b81518015158114612687578182fd5b600060208284031215612b66578081fd5b5035919050565b600060208284031215612b7e578081fd5b5051919050565b60008060408385031215612b97578182fd5b50508035926020909101359150565b600080600060608486031215612bba578283fd5b505081359360208301359350604090920135919050565b6000815180845260208085019450808401835b83811015612c0057815187529582019590820190600101612be4565b509495945050505050565b60008151808452612c23816020860160208601612e22565b601f01601f19169290920160200192915050565b600081518352602082015160c06020850152612c5660c0850182612c0b565b905060408301518482036040860152612c6f8282612c0b565b91505060608301518482036060860152612c898282612c0b565b91505060808301518482036080860152612ca38282612c0b565b91505060a083015160a08501528091505092915050565b60008251612ccc818460208701612e22565b9190910192915050565b6000602080830181845280855180835260408601915060408160051b8701019250838701855b82811015612d2a57603f19888603018452612d18858351612c37565b94509285019290850190600101612cfc565b5092979650505050505050565b6000602082526126876020830184612bd1565b600060408252612d5d6040830185612bd1565b8281036020840152612d6f8185612bd1565b95945050505050565b6000602082526126876020830184612c0b565b6000602082526126876020830184612c37565b604051601f8201601f1916810167ffffffffffffffff81118282101715612dc757612dc7612eb4565b604052919050565b600067ffffffffffffffff821115612de957612de9612eb4565b5060051b60200190565b60008219821115612e0657612e06612e9e565b500190565b600082821015612e1d57612e1d612e9e565b500390565b60005b83811015612e3d578181015183820152602001612e25565b838111156123835750506000910152565b600181811c90821680612e6257607f821691505b60208210811415610ad257634e487b7160e01b600052602260045260246000fd5b6000600019821415612e9757612e97612e9e565b5060010190565b634e487b7160e01b600052601160045260246000fd5b634e487b7160e01b600052604160045260246000fdfea2646970667358221220eaef0c0b5b1c576a5153451bf54dc983cb22a48927ad3ad7df823f92a7f1cebc64736f6c63430008030033",
  "linkReferences": {},
  "deployedLinkReferences": {}
}