{
  "_format": "hh-sol-artifact-1",
  "contractName": "NerdFund",
  "sourceName": "contracts/NerdFund.sol",
  "abi": [
    {
      "inputs": [
        {
          "internalType": "address",
          "name": "_erc20",
          "type": "address"
        },
        {
          "internalType": "uint256",
          "name": "_completeFund",
          "type": "uint256"
        }
      ],
      "stateMutability": "nonpayable",
      "type": "constructor"
    },
    {
      "anonymous": false,
      "inputs": [
        {
          "indexed": true,
          "internalType": "uint256",
          "name": "id",
          "type": "uint256"
        },
        {
          "indexed": false,
          "internalType": "string",
          "name": "name",
          "type": "string"
        }
      ],
      "name": "AddProject",
      "type": "event"
    },
    {
      "anonymous": false,
      "inputs": [
        {
          "indexed": true,
          "internalType": "uint256",
          "name": "projectId",
          "type": "uint256"
        },
        {
          "indexed": false,
          "internalType": "uint256",
          "name": "time",
          "type": "uint256"
        }
      ],
      "name": "Complete",
      "type": "event"
    },
    {
      "anonymous": false,
      "inputs": [
        {
          "indexed": true,
          "internalType": "address",
          "name": "funder",
          "type": "address"
        },
        {
          "indexed": true,
          "internalType": "uint256",
          "name": "projectId",
          "type": "uint256"
        },
        {
          "indexed": false,
          "internalType": "uint256",
          "name": "amount",
          "type": "uint256"
        }
      ],
      "name": "Fund",
      "type": "event"
    },
    {
      "anonymous": false,
      "inputs": [
        {
          "indexed": true,
          "internalType": "address",
          "name": "previousOwner",
          "type": "address"
        },
        {
          "indexed": true,
          "internalType": "address",
          "name": "newOwner",
          "type": "address"
        }
      ],
      "name": "OwnershipTransferred",
      "type": "event"
    },
    {
      "anonymous": false,
      "inputs": [
        {
          "indexed": false,
          "internalType": "address",
          "name": "account",
          "type": "address"
        }
      ],
      "name": "Paused",
      "type": "event"
    },
    {
      "anonymous": false,
      "inputs": [
        {
          "indexed": false,
          "internalType": "address",
          "name": "account",
          "type": "address"
        }
      ],
      "name": "Unpaused",
      "type": "event"
    },
    {
      "inputs": [
        {
          "internalType": "string",
          "name": "_name",
          "type": "string"
        },
        {
          "internalType": "string",
          "name": "_description",
          "type": "string"
        },
        {
          "internalType": "string",
          "name": "_imageLink",
          "type": "string"
        },
        {
          "internalType": "string",
          "name": "_dataLink",
          "type": "string"
        }
      ],
      "name": "addProject",
      "outputs": [],
      "stateMutability": "nonpayable",
      "type": "function"
    },
    {
      "inputs": [
        {
          "internalType": "uint256",
          "name": "_projectId",
          "type": "uint256"
        }
      ],
      "name": "complete",
      "outputs": [],
      "stateMutability": "nonpayable",
      "type": "function"
    },
    {
      "inputs": [],
      "name": "completeFund",
      "outputs": [
        {
          "internalType": "uint256",
          "name": "",
          "type": "uint256"
        }
      ],
      "stateMutability": "view",
      "type": "function"
    },
    {
      "inputs": [
        {
          "internalType": "uint256",
          "name": "_projectId",
          "type": "uint256"
        },
        {
          "internalType": "uint256",
          "name": "_amount",
          "type": "uint256"
        }
      ],
      "name": "fund",
      "outputs": [],
      "stateMutability": "nonpayable",
      "type": "function"
    },
    {
      "inputs": [],
      "name": "getAllProjects",
      "outputs": [
        {
          "components": [
            {
              "internalType": "uint256",
              "name": "projectId",
              "type": "uint256"
            },
            {
              "internalType": "string",
              "name": "name",
              "type": "string"
            },
            {
              "internalType": "string",
              "name": "description",
              "type": "string"
            },
            {
              "internalType": "string",
              "name": "imageLink",
              "type": "string"
            },
            {
              "internalType": "string",
              "name": "dataLink",
              "type": "string"
            },
            {
              "internalType": "uint256",
              "name": "fund",
              "type": "uint256"
            },
            {
              "internalType": "uint256",
              "name": "completeNumber",
              "type": "uint256"
            }
          ],
          "internalType": "struct NerdFund.ProjectInfo[]",
          "name": "projectsInfo",
          "type": "tuple[]"
        }
      ],
      "stateMutability": "view",
      "type": "function"
    },
    {
      "inputs": [],
      "name": "iERC20",
      "outputs": [
        {
          "internalType": "contract IERC20",
          "name": "",
          "type": "address"
        }
      ],
      "stateMutability": "view",
      "type": "function"
    },
    {
      "inputs": [],
      "name": "owner",
      "outputs": [
        {
          "internalType": "address",
          "name": "",
          "type": "address"
        }
      ],
      "stateMutability": "view",
      "type": "function"
    },
    {
      "inputs": [],
      "name": "pause",
      "outputs": [],
      "stateMutability": "nonpayable",
      "type": "function"
    },
    {
      "inputs": [],
      "name": "paused",
      "outputs": [
        {
          "internalType": "bool",
          "name": "",
          "type": "bool"
        }
      ],
      "stateMutability": "view",
      "type": "function"
    },
    {
      "inputs": [
        {
          "internalType": "uint256",
          "name": "",
          "type": "uint256"
        }
      ],
      "name": "projects",
      "outputs": [
        {
          "internalType": "uint256",
          "name": "projectId",
          "type": "uint256"
        },
        {
          "internalType": "string",
          "name": "name",
          "type": "string"
        },
        {
          "internalType": "string",
          "name": "description",
          "type": "string"
        },
        {
          "internalType": "string",
          "name": "imageLink",
          "type": "string"
        },
        {
          "internalType": "string",
          "name": "dataLink",
          "type": "string"
        },
        {
          "internalType": "uint256",
          "name": "fund",
          "type": "uint256"
        },
        {
          "internalType": "uint256",
          "name": "completeNumber",
          "type": "uint256"
        }
      ],
      "stateMutability": "view",
      "type": "function"
    },
    {
      "inputs": [],
      "name": "renounceOwnership",
      "outputs": [],
      "stateMutability": "nonpayable",
      "type": "function"
    },
    {
      "inputs": [
        {
          "internalType": "address",
          "name": "newOwner",
          "type": "address"
        }
      ],
      "name": "transferOwnership",
      "outputs": [],
      "stateMutability": "nonpayable",
      "type": "function"
    },
    {
      "inputs": [],
      "name": "unpause",
      "outputs": [],
      "stateMutability": "nonpayable",
      "type": "function"
    },
    {
      "inputs": [
        {
          "internalType": "uint256",
          "name": "_completeFund",
          "type": "uint256"
        }
      ],
      "name": "updateCompleteFund",
      "outputs": [],
      "stateMutability": "nonpayable",
      "type": "function"
    },
    {
      "inputs": [
        {
          "internalType": "address",
          "name": "_token",
          "type": "address"
        }
      ],
      "name": "withdraw",
      "outputs": [],
      "stateMutability": "nonpayable",
      "type": "function"
    }
  ],
  "bytecode": "0x608060405234801561001057600080fd5b50604051611a34380380611a3483398101604081905261002f916100be565b6100383361006e565b6000805460ff60a01b19169055600180546001600160a01b0319166001600160a01b0393909316929092179091556003556100f6565b600080546001600160a01b038381166001600160a01b0319831681178455604051919092169283917f8be0079c531659141344cd1fd0a4f28419497f9722a3daafe3b4186f6b6457e09190a35050565b600080604083850312156100d0578182fd5b82516001600160a01b03811681146100e6578283fd5b6020939093015192949293505050565b61192f806101056000396000f3fe608060405234801561001057600080fd5b50600436106100f55760003560e01c80637fdd098e116100975780638fa84fda116100665780638fa84fda146101f0578063971d852f14610207578063a65e2cfd1461021a578063f2fde38b1461022d576100f5565b80637fdd098e146101af57806380d03829146101c25780638456cb59146101d75780638da5cb5b146101df576100f5565b80633f4ba83a116100d35780633f4ba83a1461016957806351cff8d9146101715780635c975abb14610184578063715018a6146101a7576100f5565b8063107046bd146100fa578063202d5e8c146101295780633c4001d41461013e575b600080fd5b61010d61010836600461162c565b610240565b60405161012097969594939291906117b2565b60405180910390f35b61013c61013736600461162c565b6104ae565b005b600154610151906001600160a01b031681565b6040516001600160a01b039091168152602001610120565b61013c6104c3565b61013c61017f36600461153d565b6104d5565b610197600054600160a01b900460ff1690565b6040519015158152602001610120565b61013c6105c5565b61013c6101bd366004611584565b6105d7565b6101ca61074c565b60405161012091906116c5565b61013c610adb565b6000546001600160a01b0316610151565b6101f960035481565b604051908152602001610120565b61013c61021536600461162c565b610aeb565b61013c61022836600461165c565b610d09565b61013c61023b36600461153d565b610dfc565b6002818154811061025057600080fd5b6000918252602090912060079091020180546001820180549193509061027590611877565b80601f01602080910402602001604051908101604052809291908181526020018280546102a190611877565b80156102ee5780601f106102c3576101008083540402835291602001916102ee565b820191906000526020600020905b8154815290600101906020018083116102d157829003601f168201915b50505050509080600201805461030390611877565b80601f016020809104026020016040519081016040528092919081815260200182805461032f90611877565b801561037c5780601f106103515761010080835404028352916020019161037c565b820191906000526020600020905b81548152906001019060200180831161035f57829003601f168201915b50505050509080600301805461039190611877565b80601f01602080910402602001604051908101604052809291908181526020018280546103bd90611877565b801561040a5780601f106103df5761010080835404028352916020019161040a565b820191906000526020600020905b8154815290600101906020018083116103ed57829003601f168201915b50505050509080600401805461041f90611877565b80601f016020809104026020016040519081016040528092919081815260200182805461044b90611877565b80156104985780601f1061046d57610100808354040283529160200191610498565b820191906000526020600020905b81548152906001019060200180831161047b57829003601f168201915b5050505050908060050154908060060154905087565b6104b6610e89565b6104be610ee3565b600355565b6104cb610e89565b6104d3610f43565b565b6104dd610e89565b6001600160a01b03811661051d5760405133904780156108fc02916000818181858888f19350505050158015610517573d6000803e3d6000fd5b506105c2565b6105c2336040517f70a082310000000000000000000000000000000000000000000000000000000081523060048201526001600160a01b038416906370a082319060240160206040518083038186803b15801561057957600080fd5b505afa15801561058d573d6000803e3d6000fd5b505050506040513d601f19601f820116820180604052508101906105b19190611644565b6001600160a01b0384169190610f98565b50565b6105cd610e89565b6104d36000611046565b6105df610e89565b6105e7610ee3565b6040805160e0810182526002805480835260208084018981529484018890526060840187905260808401869052600060a0850181905260c085018190526001830184559290925282517f405787fa12a823e0f2b7631cc41b3ba8828b3321ca811111fa75cd3aa3bb5ace600790920291820190815593518051939485949093610694937f405787fa12a823e0f2b7631cc41b3ba8828b3321ca811111fa75cd3aa3bb5acf01920190611426565b50604082015180516106b0916002840191602090910190611426565b50606082015180516106cc916003840191602090910190611426565b50608082015180516106e8916004840191602090910190611426565b5060a0820151600582015560c09091015160069091015560025461070e90600190611834565b7f3a555fa0cb792374d61ae16614c12e1e3b733e9cfab1a5598530ce5ceeb8bac78660405161073d919061179f565b60405180910390a25050505050565b60025460609067ffffffffffffffff81111561077857634e487b7160e01b600052604160045260246000fd5b6040519080825280602002602001820160405280156107e957816020015b6107d66040518060e00160405280600081526020016060815260200160608152602001606081526020016060815260200160008152602001600081525090565b8152602001906001900390816107965790505b50905060005b600254811015610ad7576002818154811061081a57634e487b7160e01b600052603260045260246000fd5b90600052602060002090600702016040518060e00160405290816000820154815260200160018201805461084d90611877565b80601f016020809104026020016040519081016040528092919081815260200182805461087990611877565b80156108c65780601f1061089b576101008083540402835291602001916108c6565b820191906000526020600020905b8154815290600101906020018083116108a957829003601f168201915b505050505081526020016002820180546108df90611877565b80601f016020809104026020016040519081016040528092919081815260200182805461090b90611877565b80156109585780601f1061092d57610100808354040283529160200191610958565b820191906000526020600020905b81548152906001019060200180831161093b57829003601f168201915b5050505050815260200160038201805461097190611877565b80601f016020809104026020016040519081016040528092919081815260200182805461099d90611877565b80156109ea5780601f106109bf576101008083540402835291602001916109ea565b820191906000526020600020905b8154815290600101906020018083116109cd57829003601f168201915b50505050508152602001600482018054610a0390611877565b80601f0160208091040260200160405190810160405280929190818152602001828054610a2f90611877565b8015610a7c5780601f10610a5157610100808354040283529160200191610a7c565b820191906000526020600020905b815481529060010190602001808311610a5f57829003601f168201915b5050505050815260200160058201548152602001600682015481525050828281518110610ab957634e487b7160e01b600052603260045260246000fd5b60200260200101819052508080610acf906118b2565b9150506107ef565b5090565b610ae3610e89565b6104d36110ae565b610af3610e89565b6002548110610b495760405162461bcd60e51b815260206004820152601c60248201527f4e6572642066756e643a20696e76616c69642070726f6a65637449640000000060448201526064015b60405180910390fd5b60035460028281548110610b6d57634e487b7160e01b600052603260045260246000fd5b9060005260206000209060070201600501541015610bcd5760405162461bcd60e51b815260206004820152601860248201527f4e6572643a2046756e64206973206e6f7420656e6f75676800000000000000006044820152606401610b40565b610c193360028381548110610bf257634e487b7160e01b600052603260045260246000fd5b60009182526020909120600560079092020101546001546001600160a01b03169190610f98565b600060028281548110610c3c57634e487b7160e01b600052603260045260246000fd5b9060005260206000209060070201600601549050600060028381548110610c7357634e487b7160e01b600052603260045260246000fd5b906000526020600020906007020160050181905550600160028381548110610cab57634e487b7160e01b600052603260045260246000fd5b90600052602060002090600702016006016000828254610ccb919061181c565b909155505060405181815282907fe4265dda6f9254d5c653c52e74ce1b937d4e37b9c98d4114797a942236faaefb9060200160405180910390a25050565b610d11610ee3565b6002548210610d625760405162461bcd60e51b815260206004820152601c60248201527f4e6572642066756e643a20696e76616c69642070726f6a6563744964000000006044820152606401610b40565b600154610d7a906001600160a01b03163330846110f1565b8060028381548110610d9c57634e487b7160e01b600052603260045260246000fd5b90600052602060002090600702016005016000828254610dbc919061181c565b9091555050604051818152829033907fd5321498ebef1d048889992d8457d0f50576d300db1fd93488480c1f57a656019060200160405180910390a35050565b610e04610e89565b6001600160a01b038116610e805760405162461bcd60e51b815260206004820152602660248201527f4f776e61626c653a206e6577206f776e657220697320746865207a65726f206160448201527f64647265737300000000000000000000000000000000000000000000000000006064820152608401610b40565b6105c281611046565b6000546001600160a01b031633146104d35760405162461bcd60e51b815260206004820181905260248201527f4f776e61626c653a2063616c6c6572206973206e6f7420746865206f776e65726044820152606401610b40565b610ef6600054600160a01b900460ff1690565b156104d35760405162461bcd60e51b815260206004820152601060248201527f5061757361626c653a20706175736564000000000000000000000000000000006044820152606401610b40565b610f4b611148565b6000805460ff60a01b191690557f5db9ee0a495bf2e6ff9c91a7834c1ba4fdd244a5e8aa4e537bd38aeae4b073aa335b6040516001600160a01b03909116815260200160405180910390a1565b6040516001600160a01b0383166024820152604481018290526110419084907fa9059cbb00000000000000000000000000000000000000000000000000000000906064015b60408051601f198184030181529190526020810180517bffffffffffffffffffffffffffffffffffffffffffffffffffffffff167fffffffff00000000000000000000000000000000000000000000000000000000909316929092179091526111a7565b505050565b600080546001600160a01b038381167fffffffffffffffffffffffff0000000000000000000000000000000000000000831681178455604051919092169283917f8be0079c531659141344cd1fd0a4f28419497f9722a3daafe3b4186f6b6457e09190a35050565b6110b6610ee3565b6000805460ff60a01b1916600160a01b1790557f62e78cea01bee320cd4e420270b5ea74000d11b0c9f74754ebdbfc544b05a258610f7b3390565b6040516001600160a01b03808516602483015283166044820152606481018290526111429085907f23b872dd0000000000000000000000000000000000000000000000000000000090608401610fdd565b50505050565b61115b600054600160a01b900460ff1690565b6104d35760405162461bcd60e51b815260206004820152601460248201527f5061757361626c653a206e6f74207061757365640000000000000000000000006044820152606401610b40565b60006111fc826040518060400160405280602081526020017f5361666545524332303a206c6f772d6c6576656c2063616c6c206661696c6564815250856001600160a01b031661128c9092919063ffffffff16565b805190915015611041578080602001905181019061121a9190611564565b6110415760405162461bcd60e51b815260206004820152602a60248201527f5361666545524332303a204552433230206f7065726174696f6e20646964206e60448201527f6f742073756363656564000000000000000000000000000000000000000000006064820152608401610b40565b606061129b84846000856112a5565b90505b9392505050565b60608247101561131d5760405162461bcd60e51b815260206004820152602660248201527f416464726573733a20696e73756666696369656e742062616c616e636520666f60448201527f722063616c6c00000000000000000000000000000000000000000000000000006064820152608401610b40565b6001600160a01b0385163b6113745760405162461bcd60e51b815260206004820152601d60248201527f416464726573733a2063616c6c20746f206e6f6e2d636f6e74726163740000006044820152606401610b40565b600080866001600160a01b0316858760405161139091906116a9565b60006040518083038185875af1925050503d80600081146113cd576040519150601f19603f3d011682016040523d82523d6000602084013e6113d2565b606091505b50915091506113e28282866113ed565b979650505050505050565b606083156113fc57508161129e565b82511561140c5782518084602001fd5b8160405162461bcd60e51b8152600401610b40919061179f565b82805461143290611877565b90600052602060002090601f016020900481019282611454576000855561149a565b82601f1061146d57805160ff191683800117855561149a565b8280016001018555821561149a579182015b8281111561149a57825182559160200191906001019061147f565b50610ad79291505b80821115610ad757600081556001016114a2565b600082601f8301126114c6578081fd5b813567ffffffffffffffff808211156114e1576114e16118e3565b604051601f8301601f19908116603f01168101908282118183101715611509576115096118e3565b81604052838152866020858801011115611521578485fd5b8360208701602083013792830160200193909352509392505050565b60006020828403121561154e578081fd5b81356001600160a01b038116811461129e578182fd5b600060208284031215611575578081fd5b8151801515811461129e578182fd5b60008060008060808587031215611599578283fd5b843567ffffffffffffffff808211156115b0578485fd5b6115bc888389016114b6565b955060208701359150808211156115d1578485fd5b6115dd888389016114b6565b945060408701359150808211156115f2578384fd5b6115fe888389016114b6565b93506060870135915080821115611613578283fd5b50611620878288016114b6565b91505092959194509250565b60006020828403121561163d578081fd5b5035919050565b600060208284031215611655578081fd5b5051919050565b6000806040838503121561166e578182fd5b50508035926020909101359150565b6000815180845261169581602086016020860161184b565b601f01601f19169290920160200192915050565b600082516116bb81846020870161184b565b9190910192915050565b60006020808301818452808551808352604092508286019150828160051b870101848801865b8381101561179157603f19898403018552815160e08151855288820151818a8701526117198287018261167d565b9150508782015185820389870152611731828261167d565b9150506060808301518683038288015261174b838261167d565b9250505060808083015186830382880152611766838261167d565b60a0858101519089015260c094850151949097019390935250505093860193908601906001016116eb565b509098975050505050505050565b60006020825261129e602083018461167d565b600088825260e060208301526117cb60e083018961167d565b82810360408401526117dd818961167d565b905082810360608401526117f1818861167d565b90508281036080840152611805818761167d565b60a0840195909552505060c0015295945050505050565b6000821982111561182f5761182f6118cd565b500190565b600082821015611846576118466118cd565b500390565b60005b8381101561186657818101518382015260200161184e565b838111156111425750506000910152565b600181811c9082168061188b57607f821691505b602082108114156118ac57634e487b7160e01b600052602260045260246000fd5b50919050565b60006000198214156118c6576118c66118cd565b5060010190565b634e487b7160e01b600052601160045260246000fd5b634e487b7160e01b600052604160045260246000fdfea264697066735822122050e980746388d8a6f9de4f06d19a83157665c5d6efe356f7f301bbe65492138b64736f6c63430008030033",
  "linkReferences": {},
  "deployedLinkReferences": {}
}